:020000040800F2
:1000000000500020911200088704000889040008AD
:100010008B0400088D0400088F0400080000000015
:100020000000000000000000000000009104000833
:1000300093040008000000009504000897040008DD
:10004000D9120008D9120008D9120008D9120008E4
:10005000D9120008D9120008D9120008D9120008D4
:10006000D9120008D9120008D9120008D9120008C4
:10007000D9120008D9120008D9120008D9120008B4
:10008000D9120008D9120008D9120008D9120008A4
:10009000D9120008D9120008D9120008D912000894
:1000A000D9120008D9120008D9120008D912000884
:1000B000D9120008D9120008D9120008D912000874
:1000C000D9120008D9120008D9120008D912000864
:1000D000D9120008D9120008D9120008D912000854
:1000E000D9120008D9120008D91200080000000037
:1000F0000000000000000000000000000000000000
:0C01000000000000000000005FF808F1A3
:10010C0010B5054C237833B9044B13B10448AFF345
:10011C0000800123237010BD0C00002000000000A3
:10012C003413000808B5034B1BB103490348AFF364
:10013C00008008BD000000001000002034130008EF
:10014C0070B586B002AD0024029403940494059417
:10015C00124B9A6942F020029A619A6902F02002CD
:10016C000092009A9A6942F004029A619B6903F02A
:10017C0004030193019B0A4E22460421304601F0F0
:10018C0011F804230293012303930494022305938F
:10019C002946304600F0FCFE06B070BD001002404F
:1001AC000008014072B6FEE708B50D480D4B036020
:1001BC004FF48273436000238360C3600361436127
:1001CC004FF4007282612822C2610362436283622F
:1001DC000A23C36200F042FA00B908BDFFF7E2FF40
:1001EC00280000200030014010B590B006AC282249
:1001FC000021204601F06BF8002301930293039336
:10020C0004930593012206924FF4803307930A92CC
:10021C0002220D920E934FF4E0130F93204600F040
:10022C00CFFB78B90F230193022102910023039392
:10023C004FF480620492059301A800F0F3FD18B905
:10024C0010B010BDFFF7AEFFFFF7ACFF70B590B06C
:10025C0000F068FBFFF7C8FFFFF772FFFFF7A4FF82
:10026C0000F09AF8684600F0ADF8002316E05C1C2C
:10027C00E4B2334AD65C334622460221684600F08B
:10028C00DFF8334622460321684600F0D9F8962061
:10029C0000F06CFB684600F0B3F82346072BE6D958
:1002AC00684600F0ADF88D2304220221684600F068
:1002BC00C7F88D2304220321684600F0C1F8684674
:1002CC0000F09EF84FF4FA6000F050FB99230422E2
:1002DC000321684600F0B4F89923042202216846F1
:1002EC0000F0AEF8684600F08BF84FF4FA6000F0BE
:1002FC003DFBB12304220221684600F0A1F8B12392
:10030C0004220321684600F09BF8684600F078F858
:10031C004FF4FA6000F02AFB99230422032168466B
:10032C0000F08EF8992304220221684600F088F828
:10033C00684600F065F84FF4FA6000F017FBB2E77E
:10034C004C13000810B582B000220AE0530002AC36
:10035C0004EB420C0CF8080C09336B4403F8081C32
:10036C000132032AF2DD0A4C00220421204600F05F
:10037C0019FF4FF0FF3308226946064800F0C9F90F
:10038C0001220421204600F00DFF02B010BD00BF79
:10039C00000801402800002008B501210C20FFF7BF
:1003AC00D1FF00210920FFF7CDFF04210A20FFF720
:1003BC00C9FF07210B20FFF7C5FF00210F20FFF716
:1003CC00C1FF08BD002215E000EBC2014FF0000C8C
:1003DC0001F803C00133DBB2072B09D813F0010F6E
:1003EC00F2D100EBC20102F1010C01F803C0F1E7FC
:1003FC000132D2B2072A01D80023EDE77047000082
:10040C0070B50646002414E00B4D0022042128464A
:10041C0000F0C8FE4FF0FF33082206EBC40107487A
:10042C0000F077F901220421284600F0BBFE0134CC
:10043C00E4B2072CE8D970BD000801402800002068
:10044C0070B5054614461E46084600F007F804F140
:10045C000052013A05EBC2052E5470BD034602282A
:10046C0005D0032805D00120042B04D070470320AD
:10047C00FAE7052070470720F8E7FEE7FEE7FEE7FE
:10048C00FEE7FEE770477047704708B500F05CFA6E
:10049C0008BD000082B00E4B9A6942F001029A61CD
:1004AC009A6902F001020092009ADA6942F08052D5
:1004BC00DA61DB6903F080530193019B054A5368B1
:1004CC0023F0E06343F00073536002B0704700BF49
:1004DC00001002400000014030B587B000230293A9
:1004EC000393049305930268174B9A4201D007B00B
:1004FC0030BD03F560439A6942F480529A619A695F
:10050C0002F480520092009A9A6942F004029A61B5
:10051C009B6903F004030193019BA0230293022324
:10052C0003930323059302AD084C2946204600F0A3
:10053C002FFD402302930023039304932946204666
:10054C0000F026FDD3E700BF003001400008014059
:10055C002DE9F04782B00546884617461E4600F046
:10056C00FFF90A9B1B1A03EB060900F0F9F9824606
:10057C00284B1B68C3F3CB3309FB03F301932B68A4
:10058C009C6838EA04040CBF01230023BB423DD015
:10059C00B6F1FF3FF3D000F0E3F9A0EB0A004845B9
:1005AC0007D2019A02B14A46019B013B0193914645
:1005BC00E5E72A68536823F0E00353606B68B3F5F2
:1005CC00827F0BD0AB6AB3F5005F14D0012385F8A2
:1005DC005130002385F85030032018E0AB68B3F598
:1005EC00004F02D0B3F5806FECD12A68136823F06A
:1005FC0040031360E6E72A68136823F40053136082
:10060C002A68136843F400531360DFE7002002B03C
:10061C00BDE8F0870800002070B582B006460C4695
:10062C00154600920B4601220221FFF791FF48B9B3
:10063C0000952346002280213046FFF789FF38B908
:10064C0002B070BD736D43F0200373650320F7E7B0
:10065C00736D43F0200373650320F1E7002856D037
:10066C0010B50446436A33B94368B3F5827F05D0AD
:10067C000023C36102E00023036143610023A362F2
:10068C0094F85130002B3CD0022384F8513022686E
:10069C00136823F040031360636803F48273A26849
:1006AC0002F404421343E26802F400621343226929
:1006BC0002F002021343626902F001021343A269C1
:1006CC0002F400721343E26902F038021343226A07
:1006DC0002F080021343A26A02F400522168134311
:1006EC000B60638B226803F0040353602268D369A8
:1006FC0023F40063D36100206065012384F851303A
:10070C0010BD84F850302046FFF7E6FEBCE7012010
:10071C0070472DE9F04383B00446894690461D4648
:10072C0000F01EF994F85130012B40F0CD800646B4
:10073C00DFB2B9F1000F00F0C880B8F1000F00F083
:10074C00C48094F85030012B00F0C380012384F84E
:10075C005030032384F8513000236365C4F8309083
:10076C00A4F83480A4F83680A363A387E38763647A
:10077C002364A368B3F5004F1ED023681A6812F0E7
:10078C00400F03D11A6842F040021A60E368B3F5D7
:10079C00006F1CD0636813B1B8F1010F5FD1226BED
:1007AC00236812781A73236B01332363E38E9BB295
:1007BC00013B9BB2E38652E02268136823F04003AE
:1007CC0013602268136843F480431360D5E76368B1
:1007DC0013B1B8F1010F15D1226B23681288DA60BE
:1007EC00236B02332363E38E9BB2013B9BB2E38604
:1007FC0008E000F0B5F8801BA84202D3B5F1FF3F2A
:10080C0015D1A5B1E38E9BB2002B42D023689A6818
:10081C0012F0020FEDD0226B1288DA60236B0233D8
:10082C002363E38E9BB2013B9BB2E386EAE7012391
:10083C0084F85130002384F85030032745E0226BB4
:10084C0012781A73236B01332363B4F836C01FFA82
:10085C008CFC0CF1FF3C1FFA8CFCA4F836C0E38E28
:10086C009BB2B3B123689A6812F0020FE7D100F083
:10087C0077F8801BA84202D3B5F1FF3F01D1002DC0
:10088C00EDD1012384F85130002384F85030032734
:10089C001BE0324629462046FFF7BEFE08B1202356
:1008AC006365A36833B901932368DA6801929B6886
:1008BC000193019B012384F85130002384F85030BC
:1008CC00636D13B9002700E00227384603B0BDE87A
:1008DC00F0830227F9E7000010B504460E4B1868A8
:1008EC000E4B1A784FF47A73B3FBF2F3B0FBF3F0C0
:1008FC0000F0B2FC68B90F2C01D901200AE00022EB
:10090C0021464FF0FF3000F097FC054B1C60002097
:10091C0000E0012010BD00BF0800002000000020F6
:10092C000400002008B5074A136843F01003136055
:10093C00032000F06FFC0F20FFF7CEFFFFF7AAFD9E
:10094C00002008BD00200240034A1168034B1B78AD
:10095C000B441360704700BF800000200000002093
:10096C00014B1868704700BF8000002038B5044662
:10097C00FFF7F6FF0546B4F1FF3F02D0044B1B789E
:10098C001C44FFF7EDFF401BA042FAD338BD00BF5B
:10099C000000002082B0084B1B68084AA2FB03230E
:1009AC005B0A00FB03F3019300BF019B5A1E0192EB
:1009BC00002BF9D102B0704708000020D34D621013
:1009CC00002800F0F18170B582B00446036813F082
:1009DC00010F2CD0994B5B6803F00C03042B1DD03A
:1009EC00964B5B6803F00C03082B12D06368B3F5CD
:1009FC00803F41D0002B55D103F1804303F50433E4
:100A0C001A6822F480321A601A6822F480221A6062
:100A1C0037E08A4B5B6813F4803FE7D0874B1B6849
:100A2C0013F4003F03D06368002B00F0BF812368F0
:100A3C0013F0020F75D0814B5B6813F00C0F5FD075
:100A4C007E4B5B6803F00C03082B54D02369002BFE
:100A5C0000F08A807A4B01221A60FFF781FF05466D
:100A6C00764B1B6813F0020F75D1FFF779FF401B13
:100A7C000228F5D903209EE1704A136843F48033B1
:100A8C001360636843B3FFF76BFF05466B4B1B6842
:100A9C0013F4003FCBD1FFF763FF401B6428F5D95B
:100AAC00032088E1B3F5A02F09D0644B1A6822F417
:100ABC0080321A601A6822F480221A60E1E703F18E
:100ACC008043A3F53C331A6842F480221A601A68FA
:100ADC0042F480321A60D4E7FFF742FF0546574BC9
:100AEC001B6813F4003FA2D0FFF73AFF401B6428A9
:100AFC00F5D903205FE1514B5B6813F4803FA5D11E
:100B0C004E4B1B6813F0020F03D02369012B40F0EE
:100B1C004F814A4A136823F0F803616943EAC10321
:100B2C001360236813F0080F33D0A369002B5CD03B
:100B3C00434B0122C3F88024FFF712FF05463F4BBD
:100B4C005B6A13F0020F21D1FFF70AFF401B02284A
:100B5C00F5D903202FE1394A136823F0F8036169B2
:100B6C0043EAC1031360DCE7354B00221A60FFF740
:100B7C00F7FE0546314B1B6813F0020FD1D0FFF77F
:100B8C00EFFE401B0228F5D9032014E10120FFF7EA
:100B9C0001FF236813F0040F00F09680274BDB69EC
:100BAC0013F0805F34D1254BDA6942F08052DA6160
:100BBC00DB6903F080530193019B0125214B1B68DA
:100BCC0013F4807F26D0E368012B3DD0002B53D14A
:100BDC0003F1804303F504331A6A22F001021A620E
:100BEC001A6A22F004021A6233E0154B0022C3F891
:100BFC008024FFF7B5FE0546104B5B6A13F0020F1D
:100C0C00C7D0FFF7ADFE401B0228F5D90320D2E078
:100C1C000025D3E70B4A136843F480731360FFF786
:100C2C009FFE0646074B1B6813F4807FCBD1FFF762
:100C3C0097FE801B6428F5D90320BCE0001002400D
:100C4C0000004242007000405F4A136A43F0010307
:100C5C001362E36833B3FFF783FE06465A4B1B6AF5
:100C6C0013F0020F2FD1FFF77BFE801B41F288336C
:100C7C009842F3D903209EE0052B09D0524B1A6AF7
:100C8C0022F001021A621A6A22F004021A62E0E7E8
:100C9C004D4B1A6A42F004021A621A6A42F00102BF
:100CAC001A62D6E7FFF75CFE0646474B1B6A13F049
:100CBC00020F08D0FFF754FE801B41F28833984294
:100CCC00F3D9032077E0E5B9E369002B72D03E4AF3
:100CDC00526802F00C02082A56D0022B17D03B4B5C
:100CEC0000221A66FFF73CFE0446374B1B6813F0D4
:100CFC00007F47D0FFF734FE001B0228F5D90320F4
:100D0C0059E0314AD36923F08053D361DCE72F4B90
:100D1C0000221A66FFF724FE05462B4B1B6813F0C6
:100D2C00007F06D0FFF71CFE401B0228F5D90320DC
:100D3C0041E0236AB3F5803F1AD023494B6823F472
:100D4C007413226A606A024313434B601F4B0122E7
:100D5C001A66FFF705FE04461B4B1B6813F0007F59
:100D6C000ED1FFF7FDFD001B0228F5D9032022E070
:100D7C00154A536823F40033A1680B435360DCE736
:100D8C00002018E0002016E0012B16D00E4B5B68FB
:100D9C0003F48031226A914211D103F47013626A18
:100DAC0093420ED1002006E001207047012002E0A2
:100DBC00012000E0002002B070BD0120FBE7012003
:100DCC00F9E70120F7E700BF0010024000004242A3
:100DDC000F4B5B6803F00C02082A01D00D487047DA
:100DEC00C3F383420C49885C13F4803F0BD0084B4F
:100DFC005B68C3F34043094AD35C064A02FB00F02C
:100E0C00B0FBF3F07047064B03FB00F0704700BFDC
:100E1C000010024000127A00581300085413000806
:100E2C0000093D00002800F0A08070B50D46044676
:100E3C00524B1B6803F007038B420BD24F4A1368CB
:100E4C0023F007030B431360136803F007038B4273
:100E5C0040F08D80236813F0020F17D013F0040FAD
:100E6C0004D0474A536843F4E0635360236813F09B
:100E7C00080F04D0424A536843F460535360404A0D
:100E8C00536823F0F003A1680B435360236813F0FD
:100E9C00010F31D06368012B20D0022B25D0384AAA
:100EAC00126812F0020F64D035494A6822F003022E
:100EBC0013434B60FFF754FD0646314B5B6803F060
:100ECC000C036268B3EB820F16D0FFF749FD801B51
:100EDC0041F288339842F0D9032045E0284A126841
:100EEC0012F4003FE0D101203EE0254A126812F0D6
:100EFC00007FD9D1012037E0204B1B6803F007039A
:100F0C00AB420AD91D4A136823F007032B43136025
:100F1C00136803F00703AB422DD1236813F0040FC1
:100F2C0006D0174A536823F4E063E1680B4353601F
:100F3C00236813F0080F07D0114A536823F4605349
:100F4C00216943EAC1035360FFF742FF0C4B5B6816
:100F5C00C3F303130B4AD35CD8400B4B18600B4BF9
:100F6C001868FFF7B9FC002070BD01207047012004
:100F7C00FAE70120F8E70120F6E700BF0020024065
:100F8C000010024068130008080000200400002034
:100F9C0070B582B00024A4469EE07C4DAB4214D0C8
:100FAC000CD8A5F58015AB420FD005F57025AB42DA
:100FBC000BD0A5F58015AB421FD106E0744DAB42AA
:100FCC0003D005F58035AB4217D18B68A3B1012B4B
:100FDC000DD04261082410E0CC680EE0CC680434DB
:100FEC000BE0CC68083408E0CC680C3405E00261F6
:100FFC00082402E0002400E00424BEF1FF0F37D8DF
:10100C0006464FEA8C0233680F25954023EA050308
:10101C0004FA02F2134333604B6813F0805F59D02B
:10102C005C4B9A6942F001029A619B6903F00103DF
:10103C000193019B4FEA9C02951C574B53F825607A
:10104C000CF00305AD000F23AB4026EA0306534B0F
:10105C00984214D003F58063984279D003F58063ED
:10106C00984277D003F58063984206D0042307E0BA
:10107C00061DACF108029200C5E7032300E0002333
:10108C00AB4033430232444D45F822304B6813F4E5
:10109C00801F61D0424A936843EA0E0393604B6809
:1010AC0013F4001F5ED03E4AD36843EA0E03D360AC
:1010BC004B6813F4003F5BD0394A536843EA0E0384
:1010CC0053604B6813F4803F58D0354A136843EA99
:1010DC000E0313600CF1010C0B6833FA0CF253D0B5
:1010EC00012202FA0CF203EA020E32EA0303F1D1F6
:1010FC004B68122B3FF651AF122B3FF67EAF01A57A
:10110C0055F823F0D70F0008E50F0008EF0F000883
:10111C00011000080710000807100008071000084D
:10112C000710000807100008071000080710000837
:10113C000710000807100008071000080710000827
:10114C000710000807100008E90F0008F50F000849
:10115C00012395E7022393E7114A936823EA0E03D0
:10116C0093609CE70E4AD36823EA0E03D3609FE793
:10117C000B4A536823EA0E035360A2E7084A13682C
:10118C0023EA0E031360A5E702B070BD0000221025
:10119C000000311000100240000001400008014026
:1011AC00000401400AB101617047090401617047F4
:1011BC00002808DB0901C9B200F1604000F561406C
:1011CC0080F80013704700F00F000901C9B2014B01
:1011DC001954704714ED00E000B500F00700C0F1A1
:1011EC00070CBCF1040F28BF4FF0040C031D062B99
:1011FC000ED9C31E4FF0FF3E0EFA0CF021EA00018F
:10120C0099400EFA03FE22EA0E0241EA020000BDEA
:10121C000023EFE7074AD36823F4E0631B041B0C9D
:10122C00000200F4E060034343F0BF6343F4003377
:10123C00D360704700ED00E010B50446054BD8684C
:10124C00C0F30220FFF7C8FF01462046FFF7B0FFAE
:10125C0010BD00BF00ED00E00138B0F1807F0BD273
:10126C004FF0E0235861054AF02182F8231000204A
:10127C00986107221A6170470120704700ED00E069
:10128C0070470000FFF7FCFF0B480C490C4A002389
:10129C0002E0D458C4500433C4188C42F9D3094A20
:1012AC00094C002301E013600432A242FBD300F08E
:1012BC0017F8FEF7CBFF7047000000200C00002051
:1012CC00801300080C00002084000020FEE7034679
:1012DC000244934200D1704703F8011BF9E7000068
:1012EC0070B500260C4D0D4B5B1B9C10A64209D112
:1012FC00002600F019F80A4D0A4B5B1B9C10A64205
:10130C0005D170BD55F8043B98470136EEE755F80A
:10131C00043B98470136F2E778130008781300086D
:10132C00781300087C130008F8B500BFF8BC08BCA3
:10133C009E467047F8B500BFF8BC08BC9E46704787
:10134C003C7EC399C37E3C000102000002030405ED
:10135C00060708090A0B0C0D0E0F101000000000F8
:0C136C000000000001020304060708094D
:041378003101000837
:04137C000D01000857
:0C138000010000001000000000127A00C4
:04000005080012914C
:00000001FF
